{
  "_format": "hh-sol-artifact-1",
  "contractName": "Pledge_Fund",
  "sourceName": "contracts/Pledge_Fund.sol",
  "abi": [
    {
      "inputs": [
        {
          "internalType": "uint256",
          "name": "",
          "type": "uint256"
        }
      ],
      "name": "campaigns",
      "outputs": [
        {
          "internalType": "address",
          "name": "owner",
          "type": "address"
        },
        {
          "internalType": "string",
          "name": "title",
          "type": "string"
        },
        {
          "internalType": "string",
          "name": "description",
          "type": "string"
        },
        {
          "internalType": "uint256",
          "name": "target",
          "type": "uint256"
        },
        {
          "internalType": "uint256",
          "name": "deadline",
          "type": "uint256"
        },
        {
          "internalType": "uint256",
          "name": "amountCollected",
          "type": "uint256"
        }
      ],
      "stateMutability": "view",
      "type": "function"
    },
    {
      "inputs": [
        {
          "internalType": "address",
          "name": "_owner",
          "type": "address"
        },
        {
          "internalType": "string",
          "name": "_title",
          "type": "string"
        },
        {
          "internalType": "string",
          "name": "_description",
          "type": "string"
        },
        {
          "internalType": "uint256",
          "name": "_target",
          "type": "uint256"
        },
        {
          "internalType": "uint256",
          "name": "_deadline",
          "type": "uint256"
        }
      ],
      "name": "createCampaign",
      "outputs": [
        {
          "internalType": "uint256",
          "name": "",
          "type": "uint256"
        }
      ],
      "stateMutability": "nonpayable",
      "type": "function"
    },
    {
      "inputs": [
        {
          "internalType": "uint256",
          "name": "_id",
          "type": "uint256"
        }
      ],
      "name": "donateToCampaign",
      "outputs": [],
      "stateMutability": "payable",
      "type": "function"
    },
    {
      "inputs": [],
      "name": "getCampaigns",
      "outputs": [
        {
          "components": [
            {
              "internalType": "address",
              "name": "owner",
              "type": "address"
            },
            {
              "internalType": "string",
              "name": "title",
              "type": "string"
            },
            {
              "internalType": "string",
              "name": "description",
              "type": "string"
            },
            {
              "internalType": "uint256",
              "name": "target",
              "type": "uint256"
            },
            {
              "internalType": "uint256",
              "name": "deadline",
              "type": "uint256"
            },
            {
              "internalType": "uint256",
              "name": "amountCollected",
              "type": "uint256"
            },
            {
              "internalType": "address[]",
              "name": "donators",
              "type": "address[]"
            },
            {
              "internalType": "uint256[]",
              "name": "donations",
              "type": "uint256[]"
            }
          ],
          "internalType": "struct Pledge_Fund.Campaign[]",
          "name": "",
          "type": "tuple[]"
        }
      ],
      "stateMutability": "view",
      "type": "function"
    },
    {
      "inputs": [
        {
          "internalType": "uint256",
          "name": "_id",
          "type": "uint256"
        }
      ],
      "name": "getDonators",
      "outputs": [
        {
          "internalType": "address[]",
          "name": "",
          "type": "address[]"
        },
        {
          "internalType": "uint256[]",
          "name": "",
          "type": "uint256[]"
        }
      ],
      "stateMutability": "view",
      "type": "function"
    },
    {
      "inputs": [],
      "name": "numberOfCampaigns",
      "outputs": [
        {
          "internalType": "uint256",
          "name": "",
          "type": "uint256"
        }
      ],
      "stateMutability": "view",
      "type": "function"
    }
  ],
  "bytecode": "0x60806040526000600155348015601457600080fd5b50611788806100246000396000f3fe6080604052600436106100555760003560e01c8063075843c31461005a57806307ca140d146100975780630fa91fa9146100c2578063141961bc1461010057806342a4fda814610142578063a6b036331461015e575b600080fd5b34801561006657600080fd5b50610081600480360381019061007c9190610c03565b610189565b60405161008e9190610cc5565b60405180910390f35b3480156100a357600080fd5b506100ac61029a565b6040516100b99190610cc5565b60405180910390f35b3480156100ce57600080fd5b506100e960048036038101906100e49190610ce0565b6102a0565b6040516100f7929190610e89565b60405180910390f35b34801561010c57600080fd5b5061012760048036038101906101229190610ce0565b6103b0565b60405161013996959493929190610f4e565b60405180910390f35b61015c60048036038101906101579190610ce0565b61051c565b005b34801561016a57600080fd5b5061017361067c565b604051610180919061126c565b60405180910390f35b60004282116101cd576040517f08c379a00000000000000000000000000000000000000000000000000000000081526004016101c490611300565b60405180910390fd5b600080600060015481526020019081526020016000209050868160000160006101000a81548173ffffffffffffffffffffffffffffffffffffffff021916908373ffffffffffffffffffffffffffffffffffffffff16021790555085816001019081610239919061152c565b508481600201908161024b919061152c565b50838160030181905550828160040181905550600081600501819055506001600081548092919061027b9061162d565b91905055506001805461028e9190611675565b91505095945050505050565b60015481565b6060806000808481526020019081526020016000206006016000808581526020019081526020016000206007018180548060200260200160405190810160405280929190818152602001828054801561034e57602002820191906000526020600020905b8160009054906101000a900473ffffffffffffffffffffffffffffffffffffffff1673ffffffffffffffffffffffffffffffffffffffff1681526020019060010190808311610304575b50505050509150808054806020026020016040519081016040528092919081815260200182805480156103a057602002820191906000526020600020905b81548152602001906001019080831161038c575b5050505050905091509150915091565b60006020528060005260406000206000915090508060000160009054906101000a900473ffffffffffffffffffffffffffffffffffffffff16908060010180546103f99061134f565b80601f01602080910402602001604051908101604052809291908181526020018280546104259061134f565b80156104725780601f1061044757610100808354040283529160200191610472565b820191906000526020600020905b81548152906001019060200180831161045557829003601f168201915b5050505050908060020180546104879061134f565b80601f01602080910402602001604051908101604052809291908181526020018280546104b39061134f565b80156105005780601f106104d557610100808354040283529160200191610500565b820191906000526020600020905b8154815290600101906020018083116104e357829003601f168201915b5050505050908060030154908060040154908060050154905086565b60003490506000806000848152602001908152602001600020905080600601339080600181540180825580915050600190039060005260206000200160009091909190916101000a81548173ffffffffffffffffffffffffffffffffffffffff021916908373ffffffffffffffffffffffffffffffffffffffff1602179055508060070182908060018154018082558091505060019003906000526020600020016000909190919091505560008160000160009054906101000a900473ffffffffffffffffffffffffffffffffffffffff1673ffffffffffffffffffffffffffffffffffffffff1683604051610611906116da565b60006040518083038185875af1925050503d806000811461064e576040519150601f19603f3d011682016040523d82523d6000602084013e610653565b606091505b5050905080156106765782826005015461066d91906116ef565b82600501819055505b50505050565b6060600060015467ffffffffffffffff81111561069c5761069b610aa2565b5b6040519080825280602002602001820160405280156106d557816020015b6106c26109ba565b8152602001906001900390816106ba5790505b50905060005b6001548110156109b2576000806000838152602001908152602001600020905080604051806101000160405290816000820160009054906101000a900473ffffffffffffffffffffffffffffffffffffffff1673ffffffffffffffffffffffffffffffffffffffff1673ffffffffffffffffffffffffffffffffffffffff16815260200160018201805461076e9061134f565b80601f016020809104026020016040519081016040528092919081815260200182805461079a9061134f565b80156107e75780601f106107bc576101008083540402835291602001916107e7565b820191906000526020600020905b8154815290600101906020018083116107ca57829003601f168201915b505050505081526020016002820180546108009061134f565b80601f016020809104026020016040519081016040528092919081815260200182805461082c9061134f565b80156108795780601f1061084e57610100808354040283529160200191610879565b820191906000526020600020905b81548152906001019060200180831161085c57829003601f168201915b505050505081526020016003820154815260200160048201548152602001600582015481526020016006820180548060200260200160405190810160405280929190818152602001828054801561092557602002820191906000526020600020905b8160009054906101000a900473ffffffffffffffffffffffffffffffffffffffff1673ffffffffffffffffffffffffffffffffffffffff16815260200190600101908083116108db575b505050505081526020016007820180548060200260200160405190810160405280929190818152602001828054801561097d57602002820191906000526020600020905b815481526020019060010190808311610969575b50505050508152505083838151811061099957610998611723565b5b60200260200101819052505080806001019150506106db565b508091505090565b604051806101000160405280600073ffffffffffffffffffffffffffffffffffffffff168152602001606081526020016060815260200160008152602001600081526020016000815260200160608152602001606081525090565b6000604051905090565b600080fd5b600080fd5b600073ffffffffffffffffffffffffffffffffffffffff82169050919050565b6000610a5482610a29565b9050919050565b610a6481610a49565b8114610a6f57600080fd5b50565b600081359050610a8181610a5b565b92915050565b600080fd5b600080fd5b6000601f19601f8301169050919050565b7f4e487b7100000000000000000000000000000000000000000000000000000000600052604160045260246000fd5b610ada82610a91565b810181811067ffffffffffffffff82111715610af957610af8610aa2565b5b80604052505050565b6000610b0c610a15565b9050610b188282610ad1565b919050565b600067ffffffffffffffff821115610b3857610b37610aa2565b5b610b4182610a91565b9050602081019050919050565b82818337600083830152505050565b6000610b70610b6b84610b1d565b610b02565b905082815260208101848484011115610b8c57610b8b610a8c565b5b610b97848285610b4e565b509392505050565b600082601f830112610bb457610bb3610a87565b5b8135610bc4848260208601610b5d565b91505092915050565b6000819050919050565b610be081610bcd565b8114610beb57600080fd5b50565b600081359050610bfd81610bd7565b92915050565b600080600080600060a08688031215610c1f57610c1e610a1f565b5b6000610c2d88828901610a72565b955050602086013567ffffffffffffffff811115610c4e57610c4d610a24565b5b610c5a88828901610b9f565b945050604086013567ffffffffffffffff811115610c7b57610c7a610a24565b5b610c8788828901610b9f565b9350506060610c9888828901610bee565b9250506080610ca988828901610bee565b9150509295509295909350565b610cbf81610bcd565b82525050565b6000602082019050610cda6000830184610cb6565b92915050565b600060208284031215610cf657610cf5610a1f565b5b6000610d0484828501610bee565b91505092915050565b600081519050919050565b600082825260208201905092915050565b6000819050602082019050919050565b610d4281610a49565b82525050565b6000610d548383610d39565b60208301905092915050565b6000602082019050919050565b6000610d7882610d0d565b610d828185610d18565b9350610d8d83610d29565b8060005b83811015610dbe578151610da58882610d48565b9750610db083610d60565b925050600181019050610d91565b5085935050505092915050565b600081519050919050565b600082825260208201905092915050565b6000819050602082019050919050565b610e0081610bcd565b82525050565b6000610e128383610df7565b60208301905092915050565b6000602082019050919050565b6000610e3682610dcb565b610e408185610dd6565b9350610e4b83610de7565b8060005b83811015610e7c578151610e638882610e06565b9750610e6e83610e1e565b925050600181019050610e4f565b5085935050505092915050565b60006040820190508181036000830152610ea38185610d6d565b90508181036020830152610eb78184610e2b565b90509392505050565b610ec981610a49565b82525050565b600081519050919050565b600082825260208201905092915050565b60005b83811015610f09578082015181840152602081019050610eee565b60008484015250505050565b6000610f2082610ecf565b610f2a8185610eda565b9350610f3a818560208601610eeb565b610f4381610a91565b840191505092915050565b600060c082019050610f636000830189610ec0565b8181036020830152610f758188610f15565b90508181036040830152610f898187610f15565b9050610f986060830186610cb6565b610fa56080830185610cb6565b610fb260a0830184610cb6565b979650505050505050565b600081519050919050565b600082825260208201905092915050565b6000819050602082019050919050565b600082825260208201905092915050565b600061100582610ecf565b61100f8185610fe9565b935061101f818560208601610eeb565b61102881610a91565b840191505092915050565b600082825260208201905092915050565b600061104f82610d0d565b6110598185611033565b935061106483610d29565b8060005b8381101561109557815161107c8882610d48565b975061108783610d60565b925050600181019050611068565b5085935050505092915050565b600082825260208201905092915050565b60006110be82610dcb565b6110c881856110a2565b93506110d383610de7565b8060005b838110156111045781516110eb8882610e06565b97506110f683610e1e565b9250506001810190506110d7565b5085935050505092915050565b60006101008301600083015161112a6000860182610d39565b50602083015184820360208601526111428282610ffa565b9150506040830151848203604086015261115c8282610ffa565b91505060608301516111716060860182610df7565b5060808301516111846080860182610df7565b5060a083015161119760a0860182610df7565b5060c083015184820360c08601526111af8282611044565b91505060e083015184820360e08601526111c982826110b3565b9150508091505092915050565b60006111e28383611111565b905092915050565b6000602082019050919050565b600061120282610fbd565b61120c8185610fc8565b93508360208202850161121e85610fd9565b8060005b8581101561125a578484038952815161123b85826111d6565b9450611246836111ea565b925060208a01995050600181019050611222565b50829750879550505050505092915050565b6000602082019050818103600083015261128681846111f7565b905092915050565b7f54686520646561646c696e652073686f756c642062652061206461746520696e60008201527f20746865206675747572652e0000000000000000000000000000000000000000602082015250565b60006112ea602c83610eda565b91506112f58261128e565b604082019050919050565b60006020820190508181036000830152611319816112dd565b9050919050565b7f4e487b7100000000000000000000000000000000000000000000000000000000600052602260045260246000fd5b6000600282049050600182168061136757607f821691505b60208210810361137a57611379611320565b5b50919050565b60008190508160005260206000209050919050565b60006020601f8301049050919050565b600082821b905092915050565b6000600883026113e27fffffffffffffffffffffffffffffffffffffffffffffffffffffffffffffffff826113a5565b6113ec86836113a5565b95508019841693508086168417925050509392505050565b6000819050919050565b600061142961142461141f84610bcd565b611404565b610bcd565b9050919050565b6000819050919050565b6114438361140e565b61145761144f82611430565b8484546113b2565b825550505050565b600090565b61146c61145f565b61147781848461143a565b505050565b5b8181101561149b57611490600082611464565b60018101905061147d565b5050565b601f8211156114e0576114b181611380565b6114ba84611395565b810160208510156114c9578190505b6114dd6114d585611395565b83018261147c565b50505b505050565b600082821c905092915050565b6000611503600019846008026114e5565b1980831691505092915050565b600061151c83836114f2565b9150826002028217905092915050565b61153582610ecf565b67ffffffffffffffff81111561154e5761154d610aa2565b5b611558825461134f565b61156382828561149f565b600060209050601f8311600181146115965760008415611584578287015190505b61158e8582611510565b8655506115f6565b601f1984166115a486611380565b60005b828110156115cc578489015182556001820191506020850194506020810190506115a7565b868310156115e957848901516115e5601f8916826114f2565b8355505b6001600288020188555050505b505050505050565b7f4e487b7100000000000000000000000000000000000000000000000000000000600052601160045260246000fd5b600061163882610bcd565b91507fffffffffffffffffffffffffffffffffffffffffffffffffffffffffffffffff820361166a576116696115fe565b5b600182019050919050565b600061168082610bcd565b915061168b83610bcd565b92508282039050818111156116a3576116a26115fe565b5b92915050565b600081905092915050565b50565b60006116c46000836116a9565b91506116cf826116b4565b600082019050919050565b60006116e5826116b7565b9150819050919050565b60006116fa82610bcd565b915061170583610bcd565b925082820190508082111561171d5761171c6115fe565b5b92915050565b7f4e487b7100000000000000000000000000000000000000000000000000000000600052603260045260246000fdfea264697066735822122080c46c96516754dc02d0c2987c79c152d1d27b786dd6c1fea615ecc4b3b59eb664736f6c634300081b0033",
  "linkReferences": {},
  "deployedLinkReferences": {}
}